{
  "contractName": "Coin",
  "abi": [
    {
      "inputs": [],
      "payable": false,
      "stateMutability": "nonpayable",
      "type": "constructor"
    },
    {
      "anonymous": false,
      "inputs": [
        {
          "indexed": true,
          "name": "_from",
          "type": "address"
        },
        {
          "indexed": true,
          "name": "_to",
          "type": "address"
        },
        {
          "indexed": false,
          "name": "_value",
          "type": "uint256"
        }
      ],
      "name": "Transfer",
      "type": "event"
    },
    {
      "constant": false,
      "inputs": [
        {
          "name": "sender",
          "type": "address"
        },
        {
          "name": "receiver",
          "type": "address"
        },
        {
          "name": "amount",
          "type": "uint256"
        }
      ],
      "name": "sendCoin",
      "outputs": [
        {
          "name": "sufficient",
          "type": "bool"
        }
      ],
      "payable": false,
      "stateMutability": "nonpayable",
      "type": "function"
    },
    {
      "constant": true,
      "inputs": [
        {
          "name": "addr",
          "type": "address"
        }
      ],
      "name": "getBalance",
      "outputs": [
        {
          "name": "balance",
          "type": "uint256"
        }
      ],
      "payable": false,
      "stateMutability": "view",
      "type": "function"
    },
    {
      "constant": true,
      "inputs": [],
      "name": "getAccount",
      "outputs": [
        {
          "name": "add",
          "type": "address"
        }
      ],
      "payable": false,
      "stateMutability": "view",
      "type": "function"
    }
  ],
  "bytecode": "0x608060405234801561001057600080fd5b506127106000803373ffffffffffffffffffffffffffffffffffffffff1673ffffffffffffffffffffffffffffffffffffffff1681526020019081526020016000208190555033600160006101000a81548173ffffffffffffffffffffffffffffffffffffffff021916908373ffffffffffffffffffffffffffffffffffffffff160217905550610344806100a66000396000f3fe608060405234801561001057600080fd5b50600436106100415760003560e01c80630b40bd8814610046578063db613e81146100cc578063f8b2cb4f14610116575b600080fd5b6100b26004803603606081101561005c57600080fd5b81019080803573ffffffffffffffffffffffffffffffffffffffff169060200190929190803573ffffffffffffffffffffffffffffffffffffffff1690602001909291908035906020019092919050505061016e565b604051808215151515815260200191505060405180910390f35b6100d46102c8565b604051808273ffffffffffffffffffffffffffffffffffffffff1673ffffffffffffffffffffffffffffffffffffffff16815260200191505060405180910390f35b6101586004803603602081101561012c57600080fd5b81019080803573ffffffffffffffffffffffffffffffffffffffff1690602001909291905050506102d0565b6040518082815260200191505060405180910390f35b6000816000808673ffffffffffffffffffffffffffffffffffffffff1673ffffffffffffffffffffffffffffffffffffffff1681526020019081526020016000205410156101bf57600090506102c1565b816000808673ffffffffffffffffffffffffffffffffffffffff1673ffffffffffffffffffffffffffffffffffffffff16815260200190815260200160002060008282540392505081905550816000808573ffffffffffffffffffffffffffffffffffffffff1673ffffffffffffffffffffffffffffffffffffffff168152602001908152602001600020600082825401925050819055508273ffffffffffffffffffffffffffffffffffffffff168473ffffffffffffffffffffffffffffffffffffffff167fddf252ad1be2c89b69c2b068fc378daa952ba7f163c4a11628f55a4df523b3ef846040518082815260200191505060405180910390a3600190505b9392505050565b600033905090565b60008060008373ffffffffffffffffffffffffffffffffffffffff1673ffffffffffffffffffffffffffffffffffffffff16815260200190815260200160002054905091905056fea165627a7a723058204d3ce2cc9d305f56fe4b5d3a5f77747551407dde31759337f508dbc184f33b160029",
  "source": "pragma solidity >=0.4.25 <0.6.0;\n\ncontract Coin {\n\n\t// Contains the balance of all the accounts.\n\tmapping (address => uint) balances;\n\n\taddress owner;\n\n\t// Signals there has been a coin transaction.\n\tevent Transfer(address indexed _from, address indexed _to, uint256 _value);\n\n\t// Constructor of the contract: the sender is made the owner of the coin and\n\t// is awarded 10.000 coins to his account.\n\tconstructor() public {\n\t\tbalances[msg.sender] = 10000;\n\t\towner = msg.sender;\n\t}\n\n\t/**\n\t * Sends 'amount' coins from 'sender' to 'receiver' if there is enough coins\n\t * in the senders account.\n\t * @param sender sender of the coins.\n\t * @param receiver receiver of the coins.\n\t * @param amount amount of coins sent.\n\t * @return True if there is enough coins in the senders balance.\n\t */\n\tfunction sendCoin(address sender, address receiver, uint amount) public returns(bool sufficient) {\n\n\t\t// Checks if there is enough coins in the senders balance.\n\t\tif (balances[sender] < amount) return false;\n\n\t\t// Takes the coins away from the senders account.\n\t\tbalances[sender] -= amount;\n\n\t\t// Gives the coins to the senders account.\n\t\tbalances[receiver] += amount;\n\n\t\t// Signals there has been a transaction.\n\t\temit Transfer(sender, receiver, amount);\n\t\treturn true;\n\t}\n\n\t/**\n\t * Returns the balance of the account 'addr'.\n\t * @return balance of the accounts 'addr'.\n\t */\n\tfunction getBalance(address addr) public view returns(uint balance) {\n\t\treturn balances[addr];\n\t}\n\n\tfunction getAccount() public view returns(address add) {\n\t\tadd = msg.sender;\n\t}\n}\n",
  "sourcePath": "/home/andrew/projects/Blackjack-BlockChain/contracts/Coin.sol",
  "compiler": {
    "name": "solc",
    "version": "0.5.8+commit.23d335f2.Emscripten.clang"
  },
  "schemaVersion": "3.0.13",
  "updatedAt": "2019-08-26T16:15:37.143Z",
  "devdoc": {
    "methods": {
      "getBalance(address)": {
        "return": "balance of the accounts 'addr'."
      },
      "sendCoin(address,address,uint256)": {
        "params": {
          "amount": "amount of coins sent.",
          "receiver": "receiver of the coins.",
          "sender": "sender of the coins."
        },
        "return": "True if there is enough coins in the senders balance."
      }
    }
  },
  "userdoc": {
    "methods": {
      "getBalance(address)": {
        "notice": "Returns the balance of the account 'addr'."
      },
      "sendCoin(address,address,uint256)": {
        "notice": "Sends 'amount' coins from 'sender' to 'receiver' if there is enough coins in the senders account."
      }
    }
  }
}